S00F000041746D656761382E737265638E
S113000012C019C018C017C016C015C014C013C040
S113001012C011C010C00FC00EC00DC00CC00BC068
S11300200AC009C008C011241FBECFE5D4E0DEBF5A
S1130030CDBF02D025C0E4CF81B3837F81BB8CE0E8
S113004082BB80B78B7F80BF86E087BB1DBC1CBC96
S113005081EA8FBD8BE08EBD19BE2EEF30E08EEBB2
S113006090E0829902C03BBD2ABD839902C09BBD2A
S11300708ABDEFE3FCE93197F1F700C00000F1CF4E
S1070080F894FFCF1E
S9030000FC
