S01300004452535F4154393043414E2E73726563F9
S11300000C944A000C9456000C9468000C94540010
S11300100C9454000C9454000C9454000C9454000C
S11300200C9454000C9454000C9454000C945400FC
S11300300C9454000C9454000C9454000C945400EC
S11300400C9454000C9454000C9454000C945400DC
S11300500C9454000C9454000C9454000C945400CC
S11300600C9454000C9454000C9454000C945400BC
S11300700C9454000C9454000C9454000C945400AC
S11300800C9454000C9454000C9454000C9454009C
S11300900C94540011241FBECFEFD8E0DEBFCDBFB7
S11300A00E947B000C9493000C9400001F920F920A
S11300B00FB60F9211248F93589AF8948EEF809371
S11300C0880078948F910F900FBE0F901F90189511
S11300D01F920F920FB60F9211248F938BB11BB8FE
S11300E0F8948EEB8093880078948F910F900FBED4
S11300F00F901F901895F89484B18D6084B9E9E647
S1130100F0E08081806A80838DB38C608DBBE0E8F1
S1130110F0E08081806A8083E1E8F0E080818260A1
S10D012080837894FFCFF894FFCF9A
S9030000FC
