S01000006B61727461706F6D2E73726563B5
S11300000C944E000C9476000C9476000C947600BC
S11300100C9476000C9476000C9476000C94760084
S11300200C9476000C9476000C9476000C94760074
S11300300C9476000C9476000C9476000C94760064
S11300400C94D2000C9476000C9476000C947600F8
S11300500C9476000C9476000C9476000C94760044
S11300600C9476000C9488000C9476000C94760022
S11300700C9476000C9476000C9476000C94760024
S11300800C9476000C9476000C9476000C94760014
S11300900C9476007800B903B904AB0011241FBE98
S11300A0CFEFD8E0DEBFCDBF11E0A0E0B1E0EAE5DC
S11300B0F1E102C005900D92AE35B107D9F722E007
S11300C0AEE5B1E001C01D92AD31B207E1F710E039
S11300D0CEE4D0E004C02197FE010E94C705CA34D3
S11300E0D107C9F70E94C6030C94AB080C94000016
S11300F020E420937C002FEC20937A000895A0E65E
S1130100B1E0880FA80FF8948D919D91789408958B
S11301100F93AF93BF930FB70F93A0910001B1E07A
S1130120009178000D93009179000D93AC3618F08E
S1130130A0E600E403C000917C00039500937C00DA
S1130140A09300010FEC00937A000F910FBFBF91B1
S1130150AF910F9118952BE0209344002AEF209340
S1130160470022E020936E00789408956091700116
S113017070917101809172019091730100907001EE
S11301800612F4CF08959B01AC01F0DF260F371F50
S1130190481F591F8895EADF26173707480759076C
S11301A0CCF708950F934F934FB74F9341E00091CD
S11301B07001040F00937001442700917101041F22
S11301C00093710100917201041F00937201009168
S11301D07301041F009373014F914FBF4F910F910F
S11301E018958A3041F410921502809116028F5F9F
S11301F0809316021CC090911502943138F010922D
S11302001502909116029F5F90931602E0911602D8
S11302109091150221E0290F2093150224E1E29F19
S1130220F0011124EB53FE4FE90FF11D80838091FF
S113023016028430A8F183E080931602A1E0B0E0B6
S113024034E110C0FB01E80FF91F2081FA01E80F27
S1130250F91F2083019684319105A1F71196A430EA
S1130260B10599F080E090E0FD0131973A9FB0012B
S11302703B9F700D11246B537E4F3E9FA0013F9F07
S1130280500D11244B535E4FDDCF80E090E020E20F
S1130290FC01EB53FE4F24AF019684319105C1F765
S11302A081E090E00895CF93DF93C82FD62F83E0A9
S11302B00E944F036D2F82E00E9432036C2F607105
S11302C084E00E9432036C2F607285E00E94320346
S11302D06C2F607486E00E9432036C2F607887E094
S11302E00E94320383E00E945303DF91CF9108956B
S11302F0CF93DF93C82FD62F0E94530161E070E0A3
S113030080E090E00E94C3006D2F8C2F8295807F47
S11303100E945301DF91CF910895CF9382E00E9410
S11303202A0383E00E942A0384E00E942A0385E0D2
S11303300E942A0386E00E942A0387E00E942A037F
S113034060E070E054E140E20DC0F901E80FF91FEC
S11303504083019684319105C1F76F5F7F4F64300C
S1130360710551F080E090E0569F9001579F300D49
S113037011242B533E4FE9CFC5E060E080E30E9497
S1130380530165E070E080E090E00E94C300C1503A
S1130390A1F760E080E20E94530165E070E080E034
S11303A090E00E94C30060E08CE00E94780165E068
S11303B070E080E090E00E94C30060E088E20E9468
S11303C0780165E070E080E090E00E94C30081E085
S11303D091E090931A0280931902CF9108952F927D
S11303E03F924F925F926F927F928F929F92AF92C1
S11303F0BF92CF92DF92EF92FF920F931F93CF930E
S1130400DF930AE4812C912C222423940F2EF4E10F
S11304103F2EF02D722C612C41C07E01F501EC0FB2
S1130420FD1F9081F601EC0FFD1F8081981749F1A3
S1130430F501EC0FFD1F8081F601EC0FFD1F808399
S1130440222381F0511003C0842D810F01C0812F1C
S1130450662D80680E94780161E070E080E090E0A1
S11304600E94C300F601EE0DFF1D8081672D0E94DE
S1130470780161E070E080E090E00E94C300262DE6
S113048001C0272D21961F5F1013C7CF4FEF841A89
S1130490940A065F54E085169104E1F01CEE100FF7
S11304A0C0E0D0E0222D389CC001399C900D11246D
S11304B0AC014B535E4F5A01AC014C585E4F6A017C
S11304C0582D5170552E0F2EF4E54F2EF02D86E742
S11304D0480EA3CFDF91CF911F910F91FF90EF9022
S11304E0DF90CF90BF90AF909F908F907F906F9050
S11304F05F904F903F902F90089560E070E054E13A
S113050040E20DC0F901E80FF91F408301968431E0
S11305109105C1F76F5F7F4F6430710551F080E042
S113052090E0569F9001579F300D11242B533E4F5E
S1130530E9CF109216021092150208951F93CF93DB
S1130540DF93CDB7DEB764970FB6F894DEBF0FBE66
S1130550CDBF162F60E081E00E94C9049A8389838D
S113056060E080E00E94C9049C838B830E942C0578
S11305709E838D830E943A058F830E94500588874D
S11305809E012F5F3F4F48E061E070E080E00E94F1
S1130590800381E00E945A059A87898780E00E943F
S11305A05A059C878B8780E00E9486059E878D87ED
S11305B081E00E948605988B8F879E01275F3F4FBD
S11305C048E066E070E081E00E94800310FF1BC0F9
S11305D061E081E00E94C904898B61E080E00E94AF
S11305E0C9048A8B0E9430058B8B0E945005869526
S11305F081708C8B9E012F5E3F4F44E068E070E079
S113060082E00E94800364960FB6F894DEBF0FBEAA
S1130610CDBFDF91CF911F910895662369F041B159
S113062021E030E0B90102C0660F771F8A95E2F736
S1130630CB01842B81B9089541B121E030E0B901A7
S113064002C0660F771F8A95E2F7CB018095842359
S113065081B9089561E00E940D03089560E00E944D
S11306600D030895662369F042B121E030E0B90139
S113067002C0660F771F8A95E2F7CB01842B82B9FB
S1130680089542B121E030E0B90102C0660F771F3E
S11306908A95E2F7CB018095842382B9089561E0BD
S11306A00E943203089560E00E943203089520B14D
S11306B030E0A90102C0559547958A95E2F7CA0131
S11306C081700895E8EDF0E081E080831092E2000B
S11306D08CE08093E30086E38093E40087EC8093CE
S11306E0E5001092DB001092DF001092DE00109201
S11306F0ED001092EF001092EE0082E080830895E6
S11307008295807F8093ED008091EF0086FF04C086
S11307108091EE0086FF2BC01092EF001092EE0045
S11307201092F0001092F100862F8295880F807E3F
S11307308093F2007695679576956795769567959B
S11307406093F300442371F0F9018FEF840F90E07C
S11307500196280F391FAAEFB0E081918C93E2171C
S1130760F307D9F740644093EF0080E008958FEFDA
S1130770089581E00E942A0381E00E94530380E0EF
S11307800E942E0380E00E944F0308950E9462039A
S11307900E948D0110BA11BAC12CD12C7601812C82
S11307A0912C540101E111E0C0E2D1E00F2EF7E3F6
S11307B02F2EF1E03F2EF02D01C088950E94B60047
S11307C06C157D058E059F05C0F322E3C20ED11C76
S11307D0E11CF11C80E00E945703882339F0109239
S11307E0C401C501B4010E949E0207C081E0809348
S11307F0C401C501B4010E946F048FEF881A980ADE
S1130800A80AB80AC501B4012AE030E040E050E08B
S11308100E949605672B682B692B81F60E947D0246
S113082060E081E00E94C904782E692E60E080E0D7
S11308300E94C9046F927F929F938F931F930F938B
S11308400E94CD050E943005782E61E081E00E946F
S1130850C904682E592E61E080E00E94C904272D46
S1130860072C000C330B3F937F925F926F929F9300
S11308708F93DF93CF930E94CD050E943A05582EA3
S113088081E00E945A05782E692E80E00E945A0564
S11308901F925F926F927F929F938F933F922F92BA
S11308A00E94CD0581E00E948605782E692E80E0A5
S11308B00E9486056F927F929F938F938EE491E0BE
S11308C09F938F930E94CD050E94EF018DB79EB731
S11308D04C960FB6F8949EBF0FBE8DBF6FCF1F937B
S11308E0CF93DF93CDB7DEB72A970FB6F894DEBF68
S11308F00FBECDBF162F60E081E00E94C9049A8329
S1130900898360E080E00E94C9049C838B8381E03A
S11309100E945A059E838D8380E00E945A059E831F
S11309208D839E012F5F3F4F48E062E070E080E0DE
S11309300E94800310FF13C061E081E00E94C9049B
S1130940898761E080E00E94C9048A879E01275F4D
S11309503F4F42E069E070E081E00E9480032A9604
S11309600FB6F894DEBF0FBECDBFDF91CF911F91BC
S113097008951092800093E49093810081E2809323
S11309806F0010929000909391008093710017B8BB
S11309900895882319F0813051F012C0809110011C
S11309A081114EC020918600309187000BC0809148
S11309B00F01811148C0209196003091970002C028
S11309C020E030E02115310509F440C0662319F018
S11309D0613039F13EC0C901A0E0B0E0880F991F31
S11309E0AA1FBB1F880F991FAA1FBB1F880F991F1F
S11309F0AA1FBB1F880F991FAA1FBB1F9C01AD0113
S1130A00220F331F441F551F220F331F441F551F2E
S1130A1060E074E284EF90E00E949605822F932FA9
S1130A200895A0E8B4E00E94B8059B01AC0160E021
S1130A3074EB84EC94E00E949605822F932F089522
S1130A4080E090E0089580E090E0089580E090E0F8
S1130A500895822F932F089585E00E947F000895C2
S1130A600E942C05969587959695879596958795DA
S1130A708154089580E00E947F004FEF53E0481BAB
S1130A80590B4E32510550F081E02DE230E0265AE8
S1130A903F4F8F5F24173507D0F3089581E0089501
S1130AA086B190E0809590959595879595958795D5
S1130AB08F710895882319F0813081F01EC08091D0
S1130AC0C401882319F0813029F01AC084E00E94FF
S1130AD07F00089580E00E947F0008958091C40102
S1130AE0882319F0813029F00EC083E00E947F0032
S1130AF0089581E00E947F00089580E090E00895C9
S1130B0080E090E0089580E090E00895882319F053
S1130B10813029F008C082E00E947F00089585E0BA
S1130B200E947F00089580E090E00895A1E21A2ECB
S1130B30AA1BBB1BFD010DC0AA1FBB1FEE1FFF1F7D
S1130B40A217B307E407F50720F0A21BB30BE40BCD
S1130B50F50B661F771F881F991F1A9469F7609514
S1130B607095809590959B01AC01BD01CF010895CE
S1130B70A29FB001B39FC001A39F700D811D1124DA
S1130B80911DB29F700D811D1124911D0895EE0FCA
S1130B90FF1F0590F491E02D0994A0E0B0E0E3ED8F
S1130BA0F5E00C948408AE014B5F5F4FFA0161914C
S1130BB07191AF018091190290911A020E94E3058C
S1130BC0E2E00C94A008ABE0B0E0E9EEF5E00C94B0
S1130BD074086C017B018A01FC01178216828381EF
S1130BE081FFCCC1CE0101963C01F6019381F7014E
S1130BF093FD859193FF81917F01882309F4BAC104
S1130C00853239F493FD859193FF81917F0185327B
S1130C1029F4B60190E00E94DA07E7CF912C212C49
S1130C20312CFFE1F315D8F08B3279F038F48032AF
S1130C3079F08332A1F4232D20611DC08D3261F03F
S1130C40803369F4232D216016C0832D8260382EF1
S1130C50E32DE4603E2E2AC0F32DF8601DC037FC5E
S1130C602DC020ED280F2A3040F08E32B9F436FC26
S1130C7081C1232D2064322E19C036FE06C08AE0BD
S1130C80989E200D1124922E11C0EAE02E9E200D74
S1130C901124222EF32DF0623F2E08C08C3621F44D
S1130CA0832D8068382E02C0883641F4F70193FD05
S1130CB0859193FF81917F018111B3CF982F9F7DFF
S1130CC09554933028F40C5F1F4F9FE399830DC014
S1130CD0833631F0833771F0833509F059C021C070
S1130CE0F801808189830E5F1F4F88248394912C9F
S1130CF0530113C02801F2E04F0E511CF801A080EB
S1130D00B18036FE03C0692D70E002C06FEF7FEF43
S1130D10C5010E94CF074C018201F32DFF773F2EBE
S1130D2016C0280122E0420E511CF801A080B180B7
S1130D3036FE03C0692D70E002C06FEF7FEFC5017E
S1130D400E94C4074C01F32DF0683F2E820133FC4E
S1130D501BC0822D90E088169906B0F4B60180E29B
S1130D6090E00E94DA072A94F4CFF50137FC8591CC
S1130D7037FE81915F01B60190E00E94DA072110ED
S1130D802A9421E0821A91088114910471F7E8C031
S1130D90843611F0893641F5F80137FE07C06081C9
S1130DA07181828193810C5F1F4F08C060817181C2
S1130DB0072E000C880B990B0E5F1F4FF32DFF7647
S1130DC03F2E97FF09C090958095709561957F4F50
S1130DD08F4F9F4FF0683F2E2AE030E0A3010E941E
S1130DE01608882E861845C0853731F4232D2F7EAA
S1130DF0B22E2AE030E025C0932D997FB92E8F368C
S1130E00C1F018F4883579F0B5C0803719F0883707
S1130E1021F0B0C0E92FE061BE2EB4FE0DC0FB2D61
S1130E20F460BF2E09C034FE0AC0292F2660B22EFA
S1130E3006C028E030E005C020E130E002C020E137
S1130E4032E0F801B7FE07C060817181828193812D
S1130E500C5F1F4F06C06081718180E090E00E5FDF
S1130E601F4FA3010E941608882E8618FB2DFF77BA
S1130E703F2E36FE0DC0232D2E7FA22E891458F44A
S1130E8034FE0BC032FC09C0832D8E7EA82E05C013
S1130E90B82CA32C03C0B82C01C0B92CA4FE0FC0DD
S1130EA0FE01E80DF11D8081803321F49A2D997E95
S1130EB0A92E09C0A2FE06C0B394B39404C08A2D1F
S1130EC0867809F0B394A3FC11C0A0FE06C0B21446
S1130ED088F4280C922C9B180EC0B21460F4B6014E
S1130EE080E290E00E94DA07B394F7CFB21418F4CA
S1130EF02B1802C0982C212CA4FE10C0B60180E34C
S1130F0090E00E94DA07A2FE17C0A1FC03C088E7A4
S1130F1090E002C088E590E0B6010CC08A2D867886
S1130F2059F0A1FE02C08BE201C080E2A7FC8DE271
S1130F30B60190E00E94DA07891438F4B60180E320
S1130F4090E00E94DA079A94F7CF8A94F301E80DAF
S1130F50F11D8081B60190E00E94DA078110F5CF7F
S1130F60222009F442CEB60180E290E00E94DA0722
S1130F702A94F6CFF6018681978102C08FEF9FEF06
S1130F802B96E2E10C949008FC01059061507040AE
S1130F900110D8F7809590958E0F9F1F0895FC013E
S1130FA06150704001900110D8F7809590958E0F94
S1130FB09F1F08950F931F93CF93DF93FB0123810A
S1130FC021FD03C08FEF9FEF2CC022FF16C0468186
S1130FD05781248135814217530744F4A081B1819C
S1130FE09D012F5F3F4F318320838C93268137816E
S1130FF02F5F3F4F3783268314C08B01EC01FB0125
S11310000084F185E02D0995892BE1F6D801169627
S11310108D919C911797019617969C938E93169792
S1131020CE01DF91CF911F910F910895FA01AA2764
S1131030283051F1203181F1E8946F936E7F6E5F17
S11310407F4F8F4F9F4FAF4FB1E03ED0B4E03CD0C5
S1131050670F781F891F9A1FA11D680F791F8A1FA8
S1131060911DA11D6A0F711D811D911DA11D20D00F
S113107009F468943F912AE0269F11243019305DC9
S11310803193DEF6CF010895462F4770405D4193BA
S1131090B3E00FD0C9F7F6CF462F4F70405D4A3307
S11310A018F0495D31FD4052419302D0A9F7EACFCF
S11310B0B4E0A6959795879577956795BA95C9F7FE
S11310C000976105710508959B01AC010A2E0694F1
S11310D05795479537952795BA95C9F7620F731FAA
S11310E0841F951FA01D08952F923F924F925F92E7
S11310F06F927F928F929F92AF92BF92CF92DF9224
S1131100EF92FF920F931F93CF93DF93CDB7DEB788
S1131110CA1BDB0B0FB6F894DEBF0FBECDBF09941C
S11311202A88398848885F846E847D848C849B8473
S1131130AA84B984C884DF80EE80FD800C811B8181
S1131140AA81B981CE0FD11D0FB6F894DEBF0FBEB0
S10D1150CDBFED010895F894FFCF20
S113115A600000000200000000F10000000000012D
S113116A012530346875203C3E20253034687500EA
S113117A0A2530346875203C3E20253034687520B1
S113118A7C2530346864000A2530346875205E5E34
S113119A20253034687520232530326864000A25F6
S11111AA30346875202121202530346875000A
S9030000FC
