S01300004452535F4154393043414E2E73726563F9
S11300000C9456000C9473000C9473000C947300BD
S11300100C9473000C9473000C9473000C94730090
S11300200C9473000C9473000C9473000C94730080
S11300300C9473000C9473000C9473000C94730070
S11300400C9451040C9473000C9421010C949701AA
S11300500C9473000C9473000C9473000C94730050
S11300600C9473000C9473000C9473000C94730040
S11300700C9473000C9473000C9473000C94730030
S11300800C9473000C9473000C9473000C94730020
S11300900C9473007E6E7F620C37260C37120C377B
S11300A00E0C37060C37020C37000C3611241FBE19
S11300B0CFEFD8E0DEBFCDBF11E0A0E0B1E0E8ECC7
S11300C0FCE002C005900D92A031B107D9F722E0FF
S11300D0A0E1B1E001C01D92A936B207E1F70E9488
S11300E034060C9462060C94000080911001811176
S11300F016C01092ED008091EF00807C91F081E0B9
S1130100ADEEB0E0EFEEF0E0982F9295907F9C93E7
S11301109081907C49F08F5F8F30B1F704C08FEFEE
S1130120089580E008958FEF0895883080F4EEED0F
S1130130F0E0408121E030E0B90102C0660F771F92
S11301408A95E2F7CB018095842380830895EFEDAF
S1130150F0E04081885021E030E0B90102C0660F30
S1130160771F8A95E2F7CB018095842380830895D5
S1130170883078F4EEEDF0E0408121E030E0B90120
S113018002C0660F771F8A95E2F7CB01842B808328
S11301900895EFEDF0E04081885021E030E0B901AE
S11301A002C0660F771F8A95E2F7CB01842B808308
S11301B00895883008F043C0E8EDF0E09081916044
S11301C0908390E0FC01EE0FFF1FE80FF91FEC563F
S11301D0FF4FE491E093E200FC01EE0FFF1FE80FF4
S11301E0F91FEB56FF4FE491E093E300FC01EE0F9F
S11301F0FF1F8E0F9F1FFC01EA56FF4FE491E0930F
S1130200E4001092DA0080EB8093DB0087EC8093AB
S1130210E5008FEF0E94A10143EA51E060E183E62B
S113022092E00E948D034DE351E068E08DE991E096
S11302300E948D0382E08093D80081E0089580E0DD
S113024008951F920F920FB60F9211242F933F938C
S11302504F935F936F937F938F939F93AF93BF93CA
S1130260CF93DF93EF93FF938091EC00807F803FE7
S113027009F446C0ADEEB0E0CC91ECEEF0E0808144
S1130280807F8C93D0819091EE0096FF20C0EEEE9B
S1130290F0E0808110821092EF008DE991E00E94DD
S11302A0D703009761F00E94A0028DE991E00E94BB
S11302B0F303EFEEF0E08081806480831EC08D2F15
S11302C082958F700E9495001092100116C083E6EB
S11302D092E00E94AC03009731F00E94180283E67A
S11302E092E00E94C803EEEEF0E080811082EFEE0F
S11302F0F0E08081807180688083C093ED0004C049
S1130300EAEDF0E080818083FF91EF91DF91CF915E
S1130310BF91AF919F918F917F916F915F914F9119
S11303203F912F910F900FBE0F901F9018951F9221
S11303300F920FB60F9211240F900FBE0F901F90C3
S11303401895CF93DF938F30D0F08F3F09F04EC0D4
S11303501092DF001092DE0080E0CDEED0E0AFEE30
S1130360B0E0EEEEF0E0982F9295907F98839C9108
S11303701C92908110828F5F8F30A9F739C090E86A
S11303809093D800E9EDF0E0908193FDFDCF1092B9
S1130390D800E9EDF0E0908192FDFDCF982F929581
S11303A0907FCDEED0E09883EEEEF0E09081108265
S11303B01092EF000E949500288180E0ADEEB0E03D
S11303C0EFEEF0E0982F9295907F9C93908190832C
S11303D08F5F8F30B9F72093ED0082E08093D800CF
S11303E0E9EDF0E0808182FFFDCF04C080E003C02E
S11303F081E001C081E0DF91CF910895CF93DF9335
S1130400EC0183E692E00E94D703FC01009761F0BF
S11304108CE0DE0101900D928A95E1F783E692E08B
S11304200E94F3038FEF01C080E0DF91CF91089524
S1130430CF93DF93DC018091EF00982F9F70139688
S11304409C93139784FD40C08091F2008295869519
S1130450877090E011969C938E932091F30030E086
S1130460220F331F220F331F220F331F822B932B94
S113047011969C938E938091F00082FF08C012968F
S11304808C911297816012968C9381E022C012960F
S11304908C9112978E7F12968C931297CD010496AD
S11304A013962C911397222389F0282FE82FF92FE4
S11304B0CAEFD0E0888181938E2F821B13969C9182
S11304C013978917B8F304C080E003C081E001C02A
S11304D081E0DF91CF9108951F93CF93DF93EC01D7
S11304E080911001882309F18DE991E00E94AC0309
S11304F00097F9F02CE0FE01DC0101900D922A95A1
S1130500E1F71FB7F89480911001882331F08DE949
S113051091E00E94C80381E001C080E01FBF811107
S11305200AC0CE010E94E00207C0CE010E94E00290
S113053003C080E001C081E0DF91CF911F91089555
S1130540CF93DF93DC0113968C9113978093EF0084
S11305501092F0001092F1008C918295880F807EA9
S11305608093F2008D919C9111979695879596951D
S11305708795969587958093F30012968C911297A0
S113058080FF06C0E0EFF0E080818460808315C0C6
S1130590CD01049613962C911397222371F0282FE2
S11305A0E82FF92FCAEFD0E0819188838E2F821B28
S11305B013969C9113978917B8F3DF91CF910895FF
S11305C01F93CF93DF93EC010E947500182F8F3097
S11305D0E0F48295807F8093ED00EEEEF0E0808180
S11305E01082CE010E94A002812F0E94B8008FB712
S11305F0F89491E0909310018FBFEFEEF0E08081CA
S11306008064808381E0810F01C080E0DF91CF911D
S11306101F910895DB018F3008F07BC090E8909320
S1130620D800E9EDF0E0908193FDFDCF1092D80061
S1130630E9EDF0E0908192FDFDCF982F9295907FA7
S11306409093ED001092EE001092EF001092F000E3
S11306501092F1009C919295990F907E9093F200E4
S11306602D913C911197369527953695279536957A
S113067027952093F30091E09093F4001092F500F5
S113068012969C9112979295990F907E9093F600F2
S113069012962D913C91139736952795369527956B
S11306A0369527952093F70014969C91149791FF03
S11306B00EC0E4EFF0E090819460908314969C91D6
S11306C090FF05C0E0EFF0E0908194609083EFEE3E
S11306D0F0E09081906890830E94B8002091ED0032
S11306E080E0ADEEB0E0EFEEF0E0982F9295907FD1
S11306F09C93908190838F5F8F30B9F72093ED00A6
S113070082E08093D800E9EDF0E0808182FFFDCFA4
S113071002C080E0089581E00895FC018FB7F89449
S11307206283518340831482158213828FBF08959C
S11307302FB7F894FC0193812FBF81E0911180E0E1
S113074008953FB7F894FC01238192813FBF81E073
S1130750291708F480E00895CF93DF93EC010E94F9
S1130760A103811110C08C8190E09C01220F331FE2
S1130770820F931F880F991F880F991F2881398131
S1130780820F931F02C080E090E0DF91CF91089523
S1130790FC019FB7F89483818F5F838384818F5F8B
S11307A084832281821708F014829FBF0895CF9317
S11307B0DF93EC010E949803811110C08D8190E0B9
S11307C09C01220F331F820F931F880F991F880FDC
S11307D0991F28813981820F931F02C080E090E025
S11307E0DF91CF910895FC019FB7F89483818150E4
S11307F0838385818F5F85832281821708F0158228
S11308009FBF089584B1806684B982EA8093800092
S1130810E1E8F0E080E180831092820010926F00A2
S1130820109285001092840080EB9BEB90938700DC
S11308308093860088E195E19093890080938800F5
S113084088EF9AE290938B0080938A008081816084
S11308508083089580913C01813079F088EF9AE299
S1130860909389008093880088E195E190938B00B0
S113087080938A0081E080933C01089580913C013B
S1130880882371F088E195E1909389008093880032
S113089088EF9AE290938B0080938A0010923C0137
S11308A008951F920F920FB60F9211248F929F9268
S11308B0AF92BF92CF92DF92EF92FF920F931F936A
S11308C02F933F934F935F936F937F938F939F9354
S11308D0AF93BF93CF93DF93EF93FF9316BC209115
S11308E032013091330140913401509135016091CE
S11308F03601709137018091380190913901A1E05E
S11309000E944D0620933201309333014093340109
S11309105093350160933601709337018093380109
S11309209093390120913201309133014091340187
S113093050913501609136017091370180913801F1
S1130940909139018090000190900101D0910201B1
S1130950C0910301B0910401A0910501F091060139
S1130960E0910701A82CB92CCD2EDC2EEB2EFA2E0B
S11309700F2F1E2F0E945906F0F0282D392D4D2FD0
S11309805C2F6B2F7A2F8F2F9E2FA4E60E944D068B
S1130990209300013093010140930201509303011D
S11309A060930401709305018093060190930701FD
S11309B081E08093290120912A0130912B014091FB
S11309C02C0150912D0160912E0170912F01809185
S11309D0300190913101A0903201B0903301C09068
S11309E03401D0903501E0903601F0903701009148
S11309F03801109139012C503E4F4F4F5F4F6F4FCC
S1130A007F4F8F4F9F4F0E94590648F480913A01BF
S1130A10823029F081E080933B010E943E042091C2
S1130A20320130913301409134015091350160918C
S1130A30360170913701809138019091390127393D
S1130A403A4341055105610571058105910519F088
S1130A5010F010920801FF91EF91DF91CF91BF91B7
S1130A60AF919F918F917F916F915F914F913F9142
S1130A702F911F910F91FF90EF90DF90CF90BF9037
S1130A80AF909F908F900F900FBE0F901F9018956E
S1130A9084B18D6084B985B1827F85B908958091D0
S1130AA03C01813011F4289A01C0289880913B01BF
S1130AB0813011F42A9A08952A98089583E084BD18
S1130AC016BC99EF97BD85BB82E080936E000895B4
S1130AD08DE191E00E94FE01882309F4A7C0809172
S1130AE01D0190911E01019709F0A0C08091200181
S1130AF08830D1F580913A0181116EC07091320134
S1130B0060913301509134014091350130913601A7
S1130B1020913701909138018091390170932A0115
S1130B2060932B0150932C0140932D0130932E019F
S1130B3020932F01909330018093310110923B0157
S1130B408091280183FF07C080910901882329F03F
S1130B500E942A0402C00E943E0480911D019091CB
S1130B601E01019709F062C080913A01811134C0DD
S1130B7070913201609133015091340140913501FB
S1130B8030913601209137019091380180913901DB
S1130B9070932A0160932B0150932C0140932D01F3
S1130BA030932E0120932F019093300180933101D3
S1130BB010923B018091280180FF05C01092090129
S1130BC00E943E0403C081E08093090180911D01CD
S1130BD090911E01019751F5809108018823D9F065
S1130BE08091270190E0843091051CF410923A0121
S1130BF00BC0099724F082E080933A0105C081E09C
S1130C0080933A010E943E0480913A01823071F44B
S1130C100E942A040BC08091270190E00497059755
S1130C2028F481E080933A010E943E0480912901D6
S1130C308130C9F41092290183E090E0909312016D
S1130C4080931101E3E1F1E080818E7F808381E074
S1130C508093140180913C0181708093150181E19E
S1130C6091E00E946C02089500E8009361000093F3
S1130C7061000E9448050E9402040E945E0587E00C
S1130C800E94D9006AE071E081E00E940A0378942E
S1130C900E9468050E944F05FBCF0024A7FD009425
S1130CA02A0F301D401D501D601D701D801D901D9C
S1130CB008952A153B054C055D056E057F058007E3
S10B0CC091070895F894FFCF99
S1130CC864000000000000000101000000000000B2
S9030000FC
