S01300004452535F4154393043414E2E73726563F9
S11300000C9456000C9473000C9473000C947300BD
S11300100C9473000C9473000C9473000C94730090
S11300200C9473000C9473000C9473000C94730080
S11300300C9473000C9473000C9473000C94730070
S11300400C9473000C9473000C9401010C947701CC
S11300500C9473000C9473000C9473000C94730050
S11300600C9473000C9473000C9473000C94730040
S11300700C9473000C9473000C9473000C94730030
S11300800C9473000C9473000C9473000C94730020
S11300900C9473007E6E7F620C37260C37120C377B
S11300A00E0C37060C37020C37000C3611241FBE19
S11300B0CFEFD8E0DEBFCDBF11E0A0E0B1E0EAE2CF
S11300C0F8E002C005900D92A630B107D9F722E0FE
S11300D0A6E0B1E001C01D92A333B207E1F70E948C
S11300E0D4030C9413040C940000883080F4EEEDD7
S11300F0F0E0408121E030E0B90102C0660F771FD3
S11301008A95E2F7CB018095842380830895EFEDEF
S1130110F0E04081885021E030E0B90102C0660F70
S1130120771F8A95E2F7CB01809584238083089515
S1130130883078F4EEEDF0E0408121E030E0B90160
S113014002C0660F771F8A95E2F7CB01842B808368
S11301500895EFEDF0E04081885021E030E0B901EE
S113016002C0660F771F8A95E2F7CB01842B808348
S11301700895883008F043C0E8EDF0E09081916084
S1130180908390E0FC01EE0FFF1FE80FF91FEC567F
S1130190FF4FE491E093E200FC01EE0FFF1FE80F34
S11301A0F91FEB56FF4FE491E093E300FC01EE0FDF
S11301B0FF1F8E0F9F1FFC01EA56FF4FE491E0934F
S11301C0E4001092DA0080EB8093DB0087EC8093EC
S11301D0E5008FEF0E9488014DE651E060E18DE279
S11301E092E00E94160347E051E068E087E691E060
S11301F00E94160382E08093D80081E0089580E095
S113020008951F920F920FB60F9211242F933F93CC
S11302104F935F936F937F938F939F93AF93BF930A
S1130220CF93DF93EF93FF938091EC00807F803F27
S113023009F446C0ADEEB0E0CC91ECEEF0E0808184
S1130240807F8C93D0819091EE0096FF20C0EEEEDB
S1130250F0E0808110821092EF0087E691E00E9426
S11302606003009761F00E94530287E691E00E94C8
S11302707C03EFEEF0E08081806480831EC08D2FCC
S113028082958F700E9475001092060116C08DE24F
S113029092E00E943503009731F00E94FF018DE245
S11302A092E00E945103EEEEF0E080811082EFEEC6
S11302B0F0E08081807180688083C093ED0004C089
S11302C0EAEDF0E080818083FF91EF91DF91CF919F
S11302D0BF91AF919F918F917F916F915F914F915A
S11302E03F912F910F900FBE0F901F9018951F9262
S11302F00F920FB60F9211240F900FBE0F901F9004
S113030018958DE292E00E94210391E089270895D7
S1130310CF93DF938F30D0F08F3F09F04EC010920F
S1130320DF001092DE0080E0CDEED0E0AFEEB0E072
S1130330EEEEF0E0982F9295907F98839C911C921A
S1130340908110828F5F8F30A9F739C090E8909325
S1130350D800E9EDF0E0908193FDFDCF1092D80034
S1130360E9EDF0E0908192FDFDCF982F9295907F7A
S1130370CDEED0E09883EEEEF0E090811082109202
S1130380EF000E947500288180E0ADEEB0E0EFEE52
S1130390F0E0982F9295907F9C93908190838F5F4B
S11303A08F30B9F72093ED0082E08093D800E9ED17
S11303B0F0E0808182FFFDCF04C080E003C081E0D3
S11303C001C081E0DF91CF910895CF93DF93EC01D9
S11303D08DE292E00E946003FC01009761F08CE0E2
S11303E0DE0101900D928A95E1F78DE292E00E9480
S11303F07C038FEF01C080E0DF91CF910895CF930C
S1130400DF93DC018091EF00982F9F7013969C93EB
S1130410139784FD40C08091F20082958695877081
S113042090E011969C938E932091F30030E0220F7C
S1130430331F220F331F220F331F822B932B11964E
S11304409C938E938091F00082FF08C012968C9149
S11304501297816012968C9381E022C012968C913F
S113046012978E7F12968C931297CD010496139651
S11304702C911397222389F0282FE82FF92FCAEF04
S1130480D0E0888181938E2F821B13969C911397C1
S11304908917B8F304C080E003C081E001C081E0A3
S11304A0DF91CF910895CF93DF93DC0113968C9164
S11304B013978093EF001092F0001092F1008C914A
S11304C08295880F807E8093F2008D919C91119784
S11304D09695879596958795969587958093F3003D
S11304E012968C91129780FF06C0E0EFF0E08081B5
S11304F08460808315C0CD01049613962C911397C4
S1130500222371F0282FE82FF92FCAEFD0E0819130
S113051088838E2F821B13969C9113978917B8F3A7
S1130520DF91CF910895DB018F3008F07BC090E814
S11305309093D800E9EDF0E0908193FDFDCF109207
S1130540D800E9EDF0E0908192FDFDCF982F9295CF
S1130550907F9093ED001092EE001092EF001092B5
S1130560F0001092F1009C919295990F907E9093D7
S1130570F2002D913C911197369527953695279544
S1130580369527952093F30091E09093F400109210
S1130590F50012969C9112979295990F907E9093E4
S11305A0F60012962D913C91139736952795369522
S11305B02795369527952093F70014969C911497C8
S11305C091FF0EC0E4EFF0E0908194609083149664
S11305D09C9190FF05C0E0EFF0E0908194609083DF
S11305E0EFEEF0E09081906890830E949800209153
S11305F0ED0080E0ADEEB0E0EFEEF0E0982F9295E4
S1130600907F9C93908190838F5F8F30B9F7209374
S1130610ED0082E08093D800E9EDF0E0808182FF74
S1130620FDCF02C080E0089581E00895FC018FB7FA
S1130630F8946283518340831482158213828FBF9E
S113064008952FB7F894FC0193812FBF81E0911195
S113065080E008953FB7F894FC01238192813FBF65
S113066081E0291708F480E00895CF93DF93EC012B
S11306700E942A03811110C08C8190E09C01220FFA
S1130680331F820F931F880F991F880F991F28818A
S11306903981820F931F02C080E090E0DF91CF91F7
S11306A00895FC019FB7F89483818F5F83838481CD
S11306B08F5F84832281821708F014829FBF08957C
S11306C0CF93DF93EC010E942103811110C08D812F
S11306D090E09C01220F331F820F931F880F991FF4
S11306E0880F991F28813981820F931F02C080E0EF
S11306F090E0DF91CF910895FC019FB7F894838136
S11307008150838385818F5F85832281821708F0DE
S113071015829FBF089584B1806684B982E880936E
S11307208000E1E8F0E080E1808310928200109282
S11307306F0010928500109284008FE19EE49093E4
S113074087008093860084EE9CE0909389008093D8
S1130750880084E295E490938B0080938A008081E2
S113076081608083089584E295E490938900809366
S1130770880084EE9CE090938B0080938A00089517
S113078084EE9CE0909389008093880084E295E451
S113079090938B0080938A00089584B18D6084B90E
S11307A085B1827F85B90895CF93DF93CDB7DEB746
S11307B02C970FB6F894DEBF0FBECDBF00E80093B0
S11307C06100009361000E94CD030E948B0386E0C8
S11307D00E94B90060E071E081E00E949302789485
S11307E00E9481018823E1F3CE0101960E94E50174
S11307F08823B1F389819A81889791F78C8181301C
S113080079F78D818F3F49F40E94B30389819A81DE
S1130810889731F78C81813019F78D81813001F708
S10D08200E94C003DDCFF894FFCF5F
S109082A000000000000C4
S9030000FC
