S01300004452535F4154393043414E2E73726563F9
S11300000C9456000C9473000C9473000C947300BD
S11300100C9473000C9473000C9473000C94730090
S11300200C9473000C9473000C9473000C94730080
S11300300C9473000C9473000C9473000C94730070
S11300400C9451040C9473000C9421010C949701AA
S11300500C9473000C9473000C9473000C94730050
S11300600C9473000C9473000C9473000C94730040
S11300700C9473000C9473000C9473000C94730030
S11300800C9473000C9473000C9473000C94730020
S11300900C9473007E6E7F620C37260C37120C377B
S11300A00E0C37060C37020C37000C3611241FBE19
S11300B0CFEFD8E0DEBFCDBF11E0A0E0B1E0EEE1CC
S11300C0FCE002C005900D92A630B107D9F722E0FA
S11300D0A6E0B1E001C01D92AD35B207E1F70E9480
S11300E076050C940D060C94000080910601811194
S11300F016C01092ED008091EF00807C91F081E0B9
S1130100ADEEB0E0EFEEF0E0982F9295907F9C93E7
S11301109081907C49F08F5F8F30B1F704C08FEFEE
S1130120089580E008958FEF0895883080F4EEED0F
S1130130F0E0408121E030E0B90102C0660F771F92
S11301408A95E2F7CB018095842380830895EFEDAF
S1130150F0E04081885021E030E0B90102C0660F30
S1130160771F8A95E2F7CB018095842380830895D5
S1130170883078F4EEEDF0E0408121E030E0B90120
S113018002C0660F771F8A95E2F7CB01842B808328
S11301900895EFEDF0E04081885021E030E0B901AE
S11301A002C0660F771F8A95E2F7CB01842B808308
S11301B00895883008F043C0E8EDF0E09081916044
S11301C0908390E0FC01EE0FFF1FE80FF91FEC563F
S11301D0FF4FE491E093E200FC01EE0FFF1FE80FF4
S11301E0F91FEB56FF4FE491E093E300FC01EE0F9F
S11301F0FF1F8E0F9F1FFC01EA56FF4FE491E0930F
S1130200E4001092DA0080EB8093DB0087EC8093AB
S1130210E5008FEF0E94A10147E951E060E187E525
S113022092E00E948D0341E351E068E081E991E0AE
S11302300E948D0382E08093D80081E0089580E0DD
S113024008951F920F920FB60F9211242F933F938C
S11302504F935F936F937F938F939F93AF93BF93CA
S1130260CF93DF93EF93FF938091EC00807F803FE7
S113027009F446C0ADEEB0E0CC91ECEEF0E0808144
S1130280807F8C93D0819091EE0096FF20C0EEEE9B
S1130290F0E0808110821092EF0081E991E00E94E9
S11302A0D703009761F00E94A00281E991E00E94C7
S11302B0F303EFEEF0E08081806480831EC08D2F15
S11302C082958F700E9495001092060116C087E5F2
S11302D092E00E94AC03009731F00E94180287E577
S11302E092E00E94C803EEEEF0E080811082EFEE0F
S11302F0F0E08081807180688083C093ED0004C049
S1130300EAEDF0E080818083FF91EF91DF91CF915E
S1130310BF91AF919F918F917F916F915F914F9119
S11303203F912F910F900FBE0F901F9018951F9221
S11303300F920FB60F9211240F900FBE0F901F90C3
S11303401895CF93DF938F30D0F08F3F09F04EC0D4
S11303501092DF001092DE0080E0CDEED0E0AFEE30
S1130360B0E0EEEEF0E0982F9295907F98839C9108
S11303701C92908110828F5F8F30A9F739C090E86A
S11303809093D800E9EDF0E0908193FDFDCF1092B9
S1130390D800E9EDF0E0908192FDFDCF982F929581
S11303A0907FCDEED0E09883EEEEF0E09081108265
S11303B01092EF000E949500288180E0ADEEB0E03D
S11303C0EFEEF0E0982F9295907F9C93908190832C
S11303D08F5F8F30B9F72093ED0082E08093D800CF
S11303E0E9EDF0E0808182FFFDCF04C080E003C02E
S11303F081E001C081E0DF91CF910895CF93DF9335
S1130400EC0187E592E00E94D703FC01009761F0BC
S11304108CE0DE0101900D928A95E1F787E592E088
S11304200E94F3038FEF01C080E0DF91CF91089524
S1130430CF93DF93DC018091EF00982F9F70139688
S11304409C93139784FD40C08091F2008295869519
S1130450877090E011969C938E932091F30030E086
S1130460220F331F220F331F220F331F822B932B94
S113047011969C938E938091F00082FF08C012968F
S11304808C911297816012968C9381E022C012960F
S11304908C9112978E7F12968C931297CD010496AD
S11304A013962C911397222389F0282FE82FF92FE4
S11304B0CAEFD0E0888181938E2F821B13969C9182
S11304C013978917B8F304C080E003C081E001C02A
S11304D081E0DF91CF9108951F93CF93DF93EC01D7
S11304E080910601882309F181E991E00E94AC031F
S11304F00097F9F02CE0FE01DC0101900D922A95A1
S1130500E1F71FB7F89480910601882331F081E95F
S113051091E00E94C80381E001C080E01FBF811107
S11305200AC0CE010E94E00207C0CE010E94E00290
S113053003C080E001C081E0DF91CF911F91089555
S1130540CF93DF93DC0113968C9113978093EF0084
S11305501092F0001092F1008C918295880F807EA9
S11305608093F2008D919C9111979695879596951D
S11305708795969587958093F30012968C911297A0
S113058080FF06C0E0EFF0E080818460808315C0C6
S1130590CD01049613962C911397222371F0282FE2
S11305A0E82FF92FCAEFD0E0819188838E2F821B28
S11305B013969C9113978917B8F3DF91CF910895FF
S11305C01F93CF93DF93EC010E947500182F8F3097
S11305D0E0F48295807F8093ED00EEEEF0E0808180
S11305E01082CE010E94A002812F0E94B8008FB712
S11305F0F89491E0909306018FBFEFEEF0E08081D4
S11306008064808381E0810F01C080E0DF91CF911D
S11306101F910895DB018F3008F07BC090E8909320
S1130620D800E9EDF0E0908193FDFDCF1092D80061
S1130630E9EDF0E0908192FDFDCF982F9295907FA7
S11306409093ED001092EE001092EF001092F000E3
S11306501092F1009C919295990F907E9093F200E4
S11306602D913C911197369527953695279536957A
S113067027952093F30091E09093F4001092F500F5
S113068012969C9112979295990F907E9093F600F2
S113069012962D913C91139736952795369527956B
S11306A0369527952093F70014969C91149791FF03
S11306B00EC0E4EFF0E090819460908314969C91D6
S11306C090FF05C0E0EFF0E0908194609083EFEE3E
S11306D0F0E09081906890830E94B8002091ED0032
S11306E080E0ADEEB0E0EFEEF0E0982F9295907FD1
S11306F09C93908190838F5F8F30B9F72093ED00A6
S113070082E08093D800E9EDF0E0808182FFFDCFA4
S113071002C080E0089581E00895FC018FB7F89449
S11307206283518340831482158213828FBF08959C
S11307302FB7F894FC0193812FBF81E0911180E0E1
S113074008953FB7F894FC01238192813FBF81E073
S1130750291708F480E00895CF93DF93EC010E94F9
S1130760A103811110C08C8190E09C01220F331FE2
S1130770820F931F880F991F880F991F2881398131
S1130780820F931F02C080E090E0DF91CF91089523
S1130790FC019FB7F89483818F5F838384818F5F8B
S11307A084832281821708F014829FBF0895CF9317
S11307B0DF93EC010E949803811110C08D8190E0B9
S11307C09C01220F331F820F931F880F991F880FDC
S11307D0991F28813981820F931F02C080E090E025
S11307E0DF91CF910895FC019FB7F89483818150E4
S11307F0838385818F5F85832281821708F0158228
S11308009FBF089584B1806684B982EA8093800092
S1130810E1E8F0E080E180831092820010926F00A2
S1130820109285001092840080EB9BEB90938700DC
S11308308093860084EE9CE09093890080938800E6
S113084084E295E490938B0080938A008081816098
S11308508083089580913001813079F084E295E4B9
S1130860909389008093880084EE9CE090938B00A1
S113087080938A0081E08093300108958091300153
S1130880882371F084EE9CE0909389008093880023
S113089084E295E490938B0080938A001092300157
S11308A008951F920F920FB60F921124AF92BF9228
S11308B0CF92DF92EF92FF920F931F932F933F9368
S11308C04F935F936F937F938F939F93AF93BF9354
S11308D0EF93FF9316BC2091280130912901409198
S11308E02A0150912B0160912C0170912D0180916E
S11308F02E0190912F01A1E00E94EC052093280184
S11309003093290140932A0150932B0160932C01C9
S113091070932D0180932E0190932F012091280133
S11309203091290140912A0150912B0160912C01B1
S113093070912D0180912E0190912F010F2EF4E6DC
S1130940AF2EF02DB12CC12CD12CE12CF12C00E0D8
S113095010E00E948D05A0E00E94010619F481E0D8
S113096080931F01209128013091290140912A018F
S113097050912B0160912C0170912D0180912E01D9
S113098090912F01A0902001B0902101C0902201EC
S1130990D0902301E0902401F090250100912601DC
S11309A010912701285E33404109510961097109F9
S11309B0810991090E94F80519F010F00E943E0483
S11309C0FF91EF91BF91AF919F918F917F916F9123
S11309D05F914F913F912F911F910F91FF90EF9055
S11309E0DF90CF90BF90AF900F900FBE0F901F90ED
S11309F0189584B18D6084B985B1827F85B90895D5
S1130A0083E084BD16BC99EF97BD85BB82E08093DB
S1130A106E00089583E191E00E94FE01882309F4A9
S1130A2047C08091130190911401019709F040C0CF
S1130A3080911601883081F580911E0183FF2CC0BE
S1130A4080910001882341F10E942A0470912801B9
S1130A506091290150912A0140912B0130912C0180
S1130A6020912D0190912E0180912F0170932001EE
S1130A706093210150932201409323013093240178
S1130A8020932501909326018093270180911301DF
S1130A9090911401019761F480911E0180FF05C0BB
S1130AA0109200010E943E0403C081E08093000183
S1130AB080911F018130C9F410921F018EE090E0F3
S1130AC09093080180930701E9E0F1E080818E7F33
S1130AD0808381E080930A0180913001817080934A
S1130AE00B0187E091E00E946C02089500E80093F6
S1130AF06100009361000E94F9040E9402040E94B4
S1130B00000587E00E94D90061E071E081E00E9465
S1130B100A0378940E940A05FDCF689401C0E89402
S1130B208F929F92CF93DF930E949B05DF91CF9189
S1130B309F908F90089588249924F401E401B0E4EF
S1130B409F93AA279A158B049C04ED05FE05CF05F7
S1130B50D007A10798F4AD2FDC2FCF2FFE2FE92D5E
S1130B60982C892E982F872F762F652F542F432F5B
S1130B70322F2227B85031F7BF9127C01B2EBF91C7
S1130B80BB27220F331F441F551F661F771F881F63
S1130B90991F881C991CEE1FFF1FCC1FDD1FAA1F65
S1130BA0BB1F8A149B04EC05FD05CE05DF05A007D9
S1130BB0B10748F08A189B08EC09FD09CE09DF0942
S1130BC0A00BB10B21601A94E1F62EF49401AF014D
S1130BD0BE01CD01000C08950024A7FD00942A0F46
S1130BE0301D401D501D601D701D801D901D0895F9
S1130BF02A153B054C055D056E057F0580079107A9
S1130C0008950024A7FD00942A17300540055005D7
S1110C1060057005800590050895F894FFCFE7
S1090C1E010000000000CB
S9030000FC
