S01300004452535F4154393043414E2E73726563F9
S11300000C9456000C9473000C9473000C947300BD
S11300100C9473000C9473000C9473000C94730090
S11300200C9473000C9473000C9473000C94730080
S11300300C9473000C9473000C9473000C94730070
S11300400C9451040C9473000C9421010C949701AA
S11300500C9473000C9473000C9473000C94730050
S11300600C9473000C9473000C9473000C94730040
S11300700C9473000C9473000C9473000C94730030
S11300800C9473000C9473000C9473000C94730020
S11300900C9473007E6E7F620C37260C37120C377B
S11300A00E0C37060C37020C37000C3611241FBE19
S11300B0CFEFD8E0DEBFCDBF11E0A0E0B1E0E2E1D8
S11300C0FCE002C005900D92AE30B107D9F722E0F2
S11300D0AEE0B1E001C01D92A636B207E1F70E947E
S11300E0D9050C9407060C94000080910E0181112F
S11300F016C01092ED008091EF00807C91F081E0B9
S1130100ADEEB0E0EFEEF0E0982F9295907F9C93E7
S11301109081907C49F08F5F8F30B1F704C08FEFEE
S1130120089580E008958FEF0895883080F4EEED0F
S1130130F0E0408121E030E0B90102C0660F771F92
S11301408A95E2F7CB018095842380830895EFEDAF
S1130150F0E04081885021E030E0B90102C0660F30
S1130160771F8A95E2F7CB018095842380830895D5
S1130170883078F4EEEDF0E0408121E030E0B90120
S113018002C0660F771F8A95E2F7CB01842B808328
S11301900895EFEDF0E04081885021E030E0B901AE
S11301A002C0660F771F8A95E2F7CB01842B808308
S11301B00895883008F043C0E8EDF0E09081916044
S11301C0908390E0FC01EE0FFF1FE80FF91FEC563F
S11301D0FF4FE491E093E200FC01EE0FFF1FE80FF4
S11301E0F91FEB56FF4FE491E093E300FC01EE0F9F
S11301F0FF1F8E0F9F1FFC01EA56FF4FE491E0930F
S1130200E4001092DA0080EB8093DB0087EC8093AB
S1130210E5008FEF0E94A10140EA51E060E180E631
S113022092E00E948D034AE351E068E08AE991E09C
S11302300E948D0382E08093D80081E0089580E0DD
S113024008951F920F920FB60F9211242F933F938C
S11302504F935F936F937F938F939F93AF93BF93CA
S1130260CF93DF93EF93FF938091EC00807F803FE7
S113027009F446C0ADEEB0E0CC91ECEEF0E0808144
S1130280807F8C93D0819091EE0096FF20C0EEEE9B
S1130290F0E0808110821092EF008AE991E00E94E0
S11302A0D703009761F00E94A0028AE991E00E94BE
S11302B0F303EFEEF0E08081806480831EC08D2F15
S11302C082958F700E94950010920E0116C080E6F0
S11302D092E00E94AC03009731F00E94180280E67D
S11302E092E00E94C803EEEEF0E080811082EFEE0F
S11302F0F0E08081807180688083C093ED0004C049
S1130300EAEDF0E080818083FF91EF91DF91CF915E
S1130310BF91AF919F918F917F916F915F914F9119
S11303203F912F910F900FBE0F901F9018951F9221
S11303300F920FB60F9211240F900FBE0F901F90C3
S11303401895CF93DF938F30D0F08F3F09F04EC0D4
S11303501092DF001092DE0080E0CDEED0E0AFEE30
S1130360B0E0EEEEF0E0982F9295907F98839C9108
S11303701C92908110828F5F8F30A9F739C090E86A
S11303809093D800E9EDF0E0908193FDFDCF1092B9
S1130390D800E9EDF0E0908192FDFDCF982F929581
S11303A0907FCDEED0E09883EEEEF0E09081108265
S11303B01092EF000E949500288180E0ADEEB0E03D
S11303C0EFEEF0E0982F9295907F9C93908190832C
S11303D08F5F8F30B9F72093ED0082E08093D800CF
S11303E0E9EDF0E0808182FFFDCF04C080E003C02E
S11303F081E001C081E0DF91CF910895CF93DF9335
S1130400EC0180E692E00E94D703FC01009761F0C2
S11304108CE0DE0101900D928A95E1F780E692E08E
S11304200E94F3038FEF01C080E0DF91CF91089524
S1130430CF93DF93DC018091EF00982F9F70139688
S11304409C93139784FD40C08091F2008295869519
S1130450877090E011969C938E932091F30030E086
S1130460220F331F220F331F220F331F822B932B94
S113047011969C938E938091F00082FF08C012968F
S11304808C911297816012968C9381E022C012960F
S11304908C9112978E7F12968C931297CD010496AD
S11304A013962C911397222389F0282FE82FF92FE4
S11304B0CAEFD0E0888181938E2F821B13969C9182
S11304C013978917B8F304C080E003C081E001C02A
S11304D081E0DF91CF9108951F93CF93DF93EC01D7
S11304E080910E01882309F18AE991E00E94AC030E
S11304F00097F9F02CE0FE01DC0101900D922A95A1
S1130500E1F71FB7F89480910E01882331F08AE94E
S113051091E00E94C80381E001C080E01FBF811107
S11305200AC0CE010E94E00207C0CE010E94E00290
S113053003C080E001C081E0DF91CF911F91089555
S1130540CF93DF93DC0113968C9113978093EF0084
S11305501092F0001092F1008C918295880F807EA9
S11305608093F2008D919C9111979695879596951D
S11305708795969587958093F30012968C911297A0
S113058080FF06C0E0EFF0E080818460808315C0C6
S1130590CD01049613962C911397222371F0282FE2
S11305A0E82FF92FCAEFD0E0819188838E2F821B28
S11305B013969C9113978917B8F3DF91CF910895FF
S11305C01F93CF93DF93EC010E947500182F8F3097
S11305D0E0F48295807F8093ED00EEEEF0E0808180
S11305E01082CE010E94A002812F0E94B8008FB712
S11305F0F89491E090930E018FBFEFEEF0E08081CC
S11306008064808381E0810F01C080E0DF91CF911D
S11306101F910895DB018F3008F07BC090E8909320
S1130620D800E9EDF0E0908193FDFDCF1092D80061
S1130630E9EDF0E0908192FDFDCF982F9295907FA7
S11306409093ED001092EE001092EF001092F000E3
S11306501092F1009C919295990F907E9093F200E4
S11306602D913C911197369527953695279536957A
S113067027952093F30091E09093F4001092F500F5
S113068012969C9112979295990F907E9093F600F2
S113069012962D913C91139736952795369527956B
S11306A0369527952093F70014969C91149791FF03
S11306B00EC0E4EFF0E090819460908314969C91D6
S11306C090FF05C0E0EFF0E0908194609083EFEE3E
S11306D0F0E09081906890830E94B8002091ED0032
S11306E080E0ADEEB0E0EFEEF0E0982F9295907FD1
S11306F09C93908190838F5F8F30B9F72093ED00A6
S113070082E08093D800E9EDF0E0808182FFFDCFA4
S113071002C080E0089581E00895FC018FB7F89449
S11307206283518340831482158213828FBF08959C
S11307302FB7F894FC0193812FBF81E0911180E0E1
S113074008953FB7F894FC01238192813FBF81E073
S1130750291708F480E00895CF93DF93EC010E94F9
S1130760A103811110C08C8190E09C01220F331FE2
S1130770820F931F880F991F880F991F2881398131
S1130780820F931F02C080E090E0DF91CF91089523
S1130790FC019FB7F89483818F5F838384818F5F8B
S11307A084832281821708F014829FBF0895CF9317
S11307B0DF93EC010E949803811110C08D8190E0B9
S11307C09C01220F331F820F931F880F991F880FDC
S11307D0991F28813981820F931F02C080E090E025
S11307E0DF91CF910895FC019FB7F89483818150E4
S11307F0838385818F5F85832281821708F0158228
S11308009FBF089584B1806684B982EA8093800092
S1130810E1E8F0E080E180831092820010926F00A2
S1130820109285001092840080EB9BEB90938700DC
S11308308093860088E195E19093890080938800F5
S113084088EF9AE290938B0080938A008081816084
S11308508083089580913901813079F088EF9AE29C
S1130860909389008093880088E195E190938B00B0
S113087080938A0081E08093390108958091390141
S1130880882371F088E195E1909389008093880032
S113089088EF9AE290938B0080938A00109239013A
S11308A008951F920F920FB60F9211248F929F9268
S11308B0AF92BF92CF92DF92EF92FF920F931F936A
S11308C02F933F934F935F936F937F938F939F9354
S11308D0AF93BF93CF93DF93EF93FF9316BC209115
S11308E030013091310140913201509133016091D6
S11308F03401709135018091360190913701A1E066
S11309000E94F2052093300130933101409332016B
S11309105093330160933401709335018093360111
S1130920909337012091300130913101409132018F
S113093050913301609134017091350180913601F9
S1130940909137018090000190900101D0910201B3
S1130950C0910301B0910401A0910501F091060139
S1130960E0910701A82CB92CCD2EDC2EEB2EFA2E0B
S11309700F2F1E2F0E94FE05F0F0282D392D4D2F2C
S11309805C2F6B2F7A2F8F2F9E2FA4E60E94F205E7
S1130990209300013093010140930201509303011D
S11309A060930401709305018093060190930701FD
S11309B081E0809327012091280130912901409101
S11309C02A0150912B0160912C0170912D0180918D
S11309D02E0190912F01A0903001B0903101C09070
S11309E03201D0903301E0903401F0903501009150
S11309F03601109137012C503E4F4F4F5F4F6F4FD0
S1130A007F4F8F4F9F4F0E94FE0528F481E0809313
S1130A1038010E943E04FF91EF91DF91CF91BF9185
S1130A20AF919F918F917F916F915F914F913F9182
S1130A302F911F910F91FF90EF90DF90CF90BF9077
S1130A40AF909F908F900F900FBE0F901F901895AE
S1130A5084B18D6084B985B1827F85B90895809110
S1130A603901813011F4289A01C028988091380105
S1130A70813011F42A9A08952A98089583E084BD58
S1130A8016BC99EF97BD85BB82E080936E000895F4
S1130A908BE191E00E94FE01882309F46EC08091ED
S1130AA01B0190911C01019709F067C080911E0100
S1130AB08830A9F570913001609131015091320173
S1130AC040913301309134012091350190913601E8
S1130AD080913701709328016093290150932A0172
S1130AE040932B0130932C0120932D0190932E01E0
S1130AF080932F01109238018091260182FF07C054
S1130B0080910801882329F00E942A0402C00E94CF
S1130B103E0480911B0190911C01019771F5709125
S1130B203001609131015091320140913301309193
S1130B3034012091350190913601809137017093F1
S1130B4028016093290150932A0140932B0130938B
S1130B502C0120932D0190932E0180932F0110924C
S1130B6038018091260180FF05C0109208010E947F
S1130B703E0403C081E08093080180912701813005
S1130B80B9F4109227011092100110920F01E1E1C3
S1130B90F1E080818E7F808381E0809312018091D7
S1130BA039018170809313018FE091E00E946C02FF
S1130BB0089500E800936100009361000E942805F5
S1130BC00E9402040E943E0587E00E94D90069E069
S1130BD071E081E00E940A0378940E9448050E9413
S1130BE02F05FBCF0024A7FD00942A0F301D401DC4
S1130BF0501D601D701D801D901D08952A153B0514
S1130C004C055D056E057F05800791070895F894EE
S1050C10FFCF10
S1110C1264000000000000000100000000006B
S9030000FC
